{
  "contractName": "GranteStudio",
  "abi": [
    {
      "inputs": [],
      "stateMutability": "nonpayable",
      "type": "constructor"
    },
    {
      "anonymous": false,
      "inputs": [
        {
          "indexed": true,
          "internalType": "address",
          "name": "owner",
          "type": "address"
        },
        {
          "indexed": true,
          "internalType": "address",
          "name": "approved",
          "type": "address"
        },
        {
          "indexed": true,
          "internalType": "uint256",
          "name": "tokenId",
          "type": "uint256"
        }
      ],
      "name": "Approval",
      "type": "event"
    },
    {
      "anonymous": false,
      "inputs": [
        {
          "indexed": true,
          "internalType": "address",
          "name": "owner",
          "type": "address"
        },
        {
          "indexed": true,
          "internalType": "address",
          "name": "operator",
          "type": "address"
        },
        {
          "indexed": false,
          "internalType": "bool",
          "name": "approved",
          "type": "bool"
        }
      ],
      "name": "ApprovalForAll",
      "type": "event"
    },
    {
      "anonymous": false,
      "inputs": [
        {
          "indexed": true,
          "internalType": "address",
          "name": "previousOwner",
          "type": "address"
        },
        {
          "indexed": true,
          "internalType": "address",
          "name": "newOwner",
          "type": "address"
        }
      ],
      "name": "OwnershipTransferred",
      "type": "event"
    },
    {
      "anonymous": false,
      "inputs": [
        {
          "indexed": true,
          "internalType": "address",
          "name": "from",
          "type": "address"
        },
        {
          "indexed": true,
          "internalType": "address",
          "name": "to",
          "type": "address"
        },
        {
          "indexed": true,
          "internalType": "uint256",
          "name": "tokenId",
          "type": "uint256"
        }
      ],
      "name": "Transfer",
      "type": "event"
    },
    {
      "inputs": [
        {
          "internalType": "address",
          "name": "to",
          "type": "address"
        },
        {
          "internalType": "uint256",
          "name": "tokenId",
          "type": "uint256"
        }
      ],
      "name": "approve",
      "outputs": [],
      "stateMutability": "nonpayable",
      "type": "function"
    },
    {
      "inputs": [
        {
          "internalType": "address",
          "name": "owner",
          "type": "address"
        }
      ],
      "name": "balanceOf",
      "outputs": [
        {
          "internalType": "uint256",
          "name": "",
          "type": "uint256"
        }
      ],
      "stateMutability": "view",
      "type": "function",
      "constant": true
    },
    {
      "inputs": [
        {
          "internalType": "uint256",
          "name": "tokenId",
          "type": "uint256"
        }
      ],
      "name": "getApproved",
      "outputs": [
        {
          "internalType": "address",
          "name": "",
          "type": "address"
        }
      ],
      "stateMutability": "view",
      "type": "function",
      "constant": true
    },
    {
      "inputs": [
        {
          "internalType": "address",
          "name": "owner",
          "type": "address"
        },
        {
          "internalType": "address",
          "name": "operator",
          "type": "address"
        }
      ],
      "name": "isApprovedForAll",
      "outputs": [
        {
          "internalType": "bool",
          "name": "",
          "type": "bool"
        }
      ],
      "stateMutability": "view",
      "type": "function",
      "constant": true
    },
    {
      "inputs": [],
      "name": "lastTokenId",
      "outputs": [
        {
          "internalType": "uint256",
          "name": "",
          "type": "uint256"
        }
      ],
      "stateMutability": "view",
      "type": "function",
      "constant": true
    },
    {
      "inputs": [],
      "name": "name",
      "outputs": [
        {
          "internalType": "string",
          "name": "",
          "type": "string"
        }
      ],
      "stateMutability": "view",
      "type": "function",
      "constant": true
    },
    {
      "inputs": [],
      "name": "owner",
      "outputs": [
        {
          "internalType": "address",
          "name": "",
          "type": "address"
        }
      ],
      "stateMutability": "view",
      "type": "function",
      "constant": true
    },
    {
      "inputs": [
        {
          "internalType": "uint256",
          "name": "tokenId",
          "type": "uint256"
        }
      ],
      "name": "ownerOf",
      "outputs": [
        {
          "internalType": "address",
          "name": "",
          "type": "address"
        }
      ],
      "stateMutability": "view",
      "type": "function",
      "constant": true
    },
    {
      "inputs": [],
      "name": "renounceOwnership",
      "outputs": [],
      "stateMutability": "nonpayable",
      "type": "function"
    },
    {
      "inputs": [
        {
          "internalType": "address",
          "name": "from",
          "type": "address"
        },
        {
          "internalType": "address",
          "name": "to",
          "type": "address"
        },
        {
          "internalType": "uint256",
          "name": "tokenId",
          "type": "uint256"
        }
      ],
      "name": "safeTransferFrom",
      "outputs": [],
      "stateMutability": "nonpayable",
      "type": "function"
    },
    {
      "inputs": [
        {
          "internalType": "address",
          "name": "from",
          "type": "address"
        },
        {
          "internalType": "address",
          "name": "to",
          "type": "address"
        },
        {
          "internalType": "uint256",
          "name": "tokenId",
          "type": "uint256"
        },
        {
          "internalType": "bytes",
          "name": "_data",
          "type": "bytes"
        }
      ],
      "name": "safeTransferFrom",
      "outputs": [],
      "stateMutability": "nonpayable",
      "type": "function"
    },
    {
      "inputs": [
        {
          "internalType": "address",
          "name": "operator",
          "type": "address"
        },
        {
          "internalType": "bool",
          "name": "approved",
          "type": "bool"
        }
      ],
      "name": "setApprovalForAll",
      "outputs": [],
      "stateMutability": "nonpayable",
      "type": "function"
    },
    {
      "inputs": [
        {
          "internalType": "bytes4",
          "name": "interfaceId",
          "type": "bytes4"
        }
      ],
      "name": "supportsInterface",
      "outputs": [
        {
          "internalType": "bool",
          "name": "",
          "type": "bool"
        }
      ],
      "stateMutability": "view",
      "type": "function",
      "constant": true
    },
    {
      "inputs": [],
      "name": "symbol",
      "outputs": [
        {
          "internalType": "string",
          "name": "",
          "type": "string"
        }
      ],
      "stateMutability": "view",
      "type": "function",
      "constant": true
    },
    {
      "inputs": [
        {
          "internalType": "address",
          "name": "from",
          "type": "address"
        },
        {
          "internalType": "address",
          "name": "to",
          "type": "address"
        },
        {
          "internalType": "uint256",
          "name": "tokenId",
          "type": "uint256"
        }
      ],
      "name": "transferFrom",
      "outputs": [],
      "stateMutability": "nonpayable",
      "type": "function"
    },
    {
      "inputs": [
        {
          "internalType": "address",
          "name": "newOwner",
          "type": "address"
        }
      ],
      "name": "transferOwnership",
      "outputs": [],
      "stateMutability": "nonpayable",
      "type": "function"
    },
    {
      "inputs": [
        {
          "internalType": "string",
          "name": "baseURI_",
          "type": "string"
        }
      ],
      "name": "setBaseURI",
      "outputs": [],
      "stateMutability": "nonpayable",
      "type": "function"
    },
    {
      "inputs": [
        {
          "internalType": "uint256",
          "name": "tokenId",
          "type": "uint256"
        }
      ],
      "name": "tokenURI",
      "outputs": [
        {
          "internalType": "string",
          "name": "",
          "type": "string"
        }
      ],
      "stateMutability": "view",
      "type": "function",
      "constant": true
    },
    {
      "inputs": [
        {
          "internalType": "string",
          "name": "sentTokenURI",
          "type": "string"
        }
      ],
      "name": "mintFairToken",
      "outputs": [
        {
          "internalType": "uint256",
          "name": "",
          "type": "uint256"
        }
      ],
      "stateMutability": "nonpayable",
      "type": "function"
    },
    {
      "inputs": [
        {
          "internalType": "address",
          "name": "from",
          "type": "address"
        },
        {
          "internalType": "address",
          "name": "to",
          "type": "address"
        },
        {
          "internalType": "uint256",
          "name": "tokenId",
          "type": "uint256"
        }
      ],
      "name": "transferFairToken",
      "outputs": [
        {
          "internalType": "bool",
          "name": "",
          "type": "bool"
        }
      ],
      "stateMutability": "nonpayable",
      "type": "function"
    },
    {
      "inputs": [
        {
          "internalType": "address",
          "name": "from",
          "type": "address"
        },
        {
          "internalType": "address",
          "name": "to",
          "type": "address"
        },
        {
          "internalType": "uint256",
          "name": "tokenId",
          "type": "uint256"
        }
      ],
      "name": "transferFairTokenExternal",
      "outputs": [
        {
          "internalType": "bool",
          "name": "",
          "type": "bool"
        }
      ],
      "stateMutability": "nonpayable",
      "type": "function"
    }
  ],
  "bytecode": "0x60806040523480156200001157600080fd5b506040518060400160405280600981526020017f46616972546f6b656e00000000000000000000000000000000000000000000008152506040518060400160405280600281526020017f46540000000000000000000000000000000000000000000000000000000000008152506200009e62000092620000d860201b60201c565b620000e060201b60201c565b8160019080519060200190620000b6929190620001a4565b508060029080519060200190620000cf929190620001a4565b505050620002b9565b600033905090565b60008060009054906101000a900473ffffffffffffffffffffffffffffffffffffffff169050816000806101000a81548173ffffffffffffffffffffffffffffffffffffffff021916908373ffffffffffffffffffffffffffffffffffffffff1602179055508173ffffffffffffffffffffffffffffffffffffffff168173ffffffffffffffffffffffffffffffffffffffff167f8be0079c531659141344cd1fd0a4f28419497f9722a3daafe3b4186f6b6457e060405160405180910390a35050565b828054620001b29062000283565b90600052602060002090601f016020900481019282620001d6576000855562000222565b82601f10620001f157805160ff191683800117855562000222565b8280016001018555821562000222579182015b828111156200022157825182559160200191906001019062000204565b5b50905062000231919062000235565b5090565b5b808211156200025057600081600090555060010162000236565b5090565b7f4e487b7100000000000000000000000000000000000000000000000000000000600052602260045260246000fd5b600060028204905060018216806200029c57607f821691505b60208210811415620002b357620002b262000254565b5b50919050565b6130d180620002c96000396000f3fe608060405234801561001057600080fd5b50600436106101375760003560e01c806377c260be116100b8578063b88d4fde1161007c578063b88d4fde1461034c578063b9d5fdf414610368578063c87b56dd14610398578063e985e9c5146103c8578063f2fde38b146103f8578063f84ddf0b1461041457610137565b806377c260be146102945780637fe4a148146102c45780638da5cb5b146102f457806395d89b4114610312578063a22cb4651461033057610137565b806342842e0e116100ff57806342842e0e146101f257806355f804b31461020e5780636352211e1461022a57806370a082311461025a578063715018a61461028a57610137565b806301ffc9a71461013c57806306fdde031461016c578063081812fc1461018a578063095ea7b3146101ba57806323b872dd146101d6575b600080fd5b61015660048036038101906101519190611e6c565b610432565b6040516101639190611eb4565b60405180910390f35b610174610514565b6040516101819190611f68565b60405180910390f35b6101a4600480360381019061019f9190611fc0565b6105a6565b6040516101b1919061202e565b60405180910390f35b6101d460048036038101906101cf9190612075565b61062b565b005b6101f060048036038101906101eb91906120b5565b6106d4565b005b61020c600480360381019061020791906120b5565b610734565b005b6102286004803603810190610223919061223d565b610754565b005b610244600480360381019061023f9190611fc0565b6107ea565b604051610251919061202e565b60405180910390f35b610274600480360381019061026f9190612286565b61089c565b60405161028191906122c2565b60405180910390f35b610292610954565b005b6102ae60048036038101906102a991906120b5565b6109dc565b6040516102bb9190611eb4565b60405180910390f35b6102de60048036038101906102d9919061223d565b610a70565b6040516102eb91906122c2565b60405180910390f35b6102fc610ac1565b604051610309919061202e565b60405180910390f35b61031a610aea565b6040516103279190611f68565b60405180910390f35b61034a60048036038101906103459190612309565b610b7c565b005b610366600480360381019061036191906123ea565b610b92565b005b610382600480360381019061037d91906120b5565b610bf4565b60405161038f9190611eb4565b60405180910390f35b6103b260048036038101906103ad9190611fc0565b610c93565b6040516103bf9190611f68565b60405180910390f35b6103e260048036038101906103dd919061246d565b610e06565b6040516103ef9190611eb4565b60405180910390f35b610412600480360381019061040d9190612286565b610e9a565b005b61041c610f92565b60405161042991906122c2565b60405180910390f35b60007f80ac58cd000000000000000000000000000000000000000000000000000000007bffffffffffffffffffffffffffffffffffffffffffffffffffffffff1916827bffffffffffffffffffffffffffffffffffffffffffffffffffffffff191614806104fd57507f5b5e139f000000000000000000000000000000000000000000000000000000007bffffffffffffffffffffffffffffffffffffffffffffffffffffffff1916827bffffffffffffffffffffffffffffffffffffffffffffffffffffffff1916145b8061050d575061050c82610f98565b5b9050919050565b606060018054610523906124dc565b80601f016020809104026020016040519081016040528092919081815260200182805461054f906124dc565b801561059c5780601f106105715761010080835404028352916020019161059c565b820191906000526020600020905b81548152906001019060200180831161057f57829003601f168201915b5050505050905090565b60006105b182611002565b6105f0576040517f08c379a00000000000000000000000000000000000000000000000000000000081526004016105e790612580565b60405180910390fd5b6005600083815260200190815260200160002060009054906101000a900473ffffffffffffffffffffffffffffffffffffffff169050919050565b6000610636826107ea565b90508073ffffffffffffffffffffffffffffffffffffffff1661065761106e565b73ffffffffffffffffffffffffffffffffffffffff16148061068657506106858161068061106e565b610e06565b5b6106c5576040517f08c379a00000000000000000000000000000000000000000000000000000000081526004016106bc90612612565b60405180910390fd5b6106cf8383611076565b505050565b6106e56106df61106e565b8261112f565b610724576040517f08c379a000000000000000000000000000000000000000000000000000000000815260040161071b906126a4565b60405180910390fd5b61072f83838361120d565b505050565b61074f83838360405180602001604052806000815250610b92565b505050565b61075c61106e565b73ffffffffffffffffffffffffffffffffffffffff1661077a610ac1565b73ffffffffffffffffffffffffffffffffffffffff16146107d0576040517f08c379a00000000000000000000000000000000000000000000000000000000081526004016107c790612710565b60405180910390fd5b80600a90805190602001906107e6929190611d5d565b5050565b6000806003600084815260200190815260200160002060009054906101000a900473ffffffffffffffffffffffffffffffffffffffff169050600073ffffffffffffffffffffffffffffffffffffffff168173ffffffffffffffffffffffffffffffffffffffff161415610893576040517f08c379a000000000000000000000000000000000000000000000000000000000815260040161088a906127a2565b60405180910390fd5b80915050919050565b60008073ffffffffffffffffffffffffffffffffffffffff168273ffffffffffffffffffffffffffffffffffffffff16141561090d576040517f08c379a000000000000000000000000000000000000000000000000000000000815260040161090490612834565b60405180910390fd5b600460008373ffffffffffffffffffffffffffffffffffffffff1673ffffffffffffffffffffffffffffffffffffffff168152602001908152602001600020549050919050565b61095c61106e565b73ffffffffffffffffffffffffffffffffffffffff1661097a610ac1565b73ffffffffffffffffffffffffffffffffffffffff16146109d0576040517f08c379a00000000000000000000000000000000000000000000000000000000081526004016109c790612710565b60405180910390fd5b6109da600061145e565b565b60006109e661106e565b73ffffffffffffffffffffffffffffffffffffffff16610a04610ac1565b73ffffffffffffffffffffffffffffffffffffffff1614610a5a576040517f08c379a0000000000000000000000000000000000000000000000000000000008152600401610a5190612710565b60405180910390fd5b610a658484846106d4565b600190509392505050565b6000610a7c6007611522565b6000610a886007611538565b9050610a946007611538565b600881905550610aa43382611546565b610aae8184611564565b610ab8338261062b565b80915050919050565b60008060009054906101000a900473ffffffffffffffffffffffffffffffffffffffff16905090565b606060028054610af9906124dc565b80601f0160208091040260200160405190810160405280929190818152602001828054610b25906124dc565b8015610b725780601f10610b4757610100808354040283529160200191610b72565b820191906000526020600020905b815481529060010190602001808311610b5557829003601f168201915b5050505050905090565b610b8e610b8761106e565b83836115d8565b5050565b610ba3610b9d61106e565b8361112f565b610be2576040517f08c379a0000000000000000000000000000000000000000000000000000000008152600401610bd9906126a4565b60405180910390fd5b610bee84848484611745565b50505050565b6000610bfe61106e565b73ffffffffffffffffffffffffffffffffffffffff16610c1c610ac1565b73ffffffffffffffffffffffffffffffffffffffff1614610c72576040517f08c379a0000000000000000000000000000000000000000000000000000000008152600401610c6990612710565b60405180910390fd5b610c7d8484846106d4565b610c88600083611076565b600190509392505050565b6060610c9e82611002565b610cdd576040517f08c379a0000000000000000000000000000000000000000000000000000000008152600401610cd4906128c6565b60405180910390fd5b6000600960008481526020019081526020016000208054610cfd906124dc565b80601f0160208091040260200160405190810160405280929190818152602001828054610d29906124dc565b8015610d765780601f10610d4b57610100808354040283529160200191610d76565b820191906000526020600020905b815481529060010190602001808311610d5957829003601f168201915b505050505090506000610d876117a1565b9050600081511415610d9d578192505050610e01565b600082511115610dd2578082604051602001610dba929190612922565b60405160208183030381529060405292505050610e01565b80610ddc85611833565b604051602001610ded929190612922565b604051602081830303815290604052925050505b919050565b6000600660008473ffffffffffffffffffffffffffffffffffffffff1673ffffffffffffffffffffffffffffffffffffffff16815260200190815260200160002060008373ffffffffffffffffffffffffffffffffffffffff1673ffffffffffffffffffffffffffffffffffffffff16815260200190815260200160002060009054906101000a900460ff16905092915050565b610ea261106e565b73ffffffffffffffffffffffffffffffffffffffff16610ec0610ac1565b73ffffffffffffffffffffffffffffffffffffffff1614610f16576040517f08c379a0000000000000000000000000000000000000000000000000000000008152600401610f0d90612710565b60405180910390fd5b600073ffffffffffffffffffffffffffffffffffffffff168173ffffffffffffffffffffffffffffffffffffffff161415610f86576040517f08c379a0000000000000000000000000000000000000000000000000000000008152600401610f7d906129b8565b60405180910390fd5b610f8f8161145e565b50565b60085481565b60007f01ffc9a7000000000000000000000000000000000000000000000000000000007bffffffffffffffffffffffffffffffffffffffffffffffffffffffff1916827bffffffffffffffffffffffffffffffffffffffffffffffffffffffff1916149050919050565b60008073ffffffffffffffffffffffffffffffffffffffff166003600084815260200190815260200160002060009054906101000a900473ffffffffffffffffffffffffffffffffffffffff1673ffffffffffffffffffffffffffffffffffffffff1614159050919050565b600033905090565b816005600083815260200190815260200160002060006101000a81548173ffffffffffffffffffffffffffffffffffffffff021916908373ffffffffffffffffffffffffffffffffffffffff160217905550808273ffffffffffffffffffffffffffffffffffffffff166110e9836107ea565b73ffffffffffffffffffffffffffffffffffffffff167f8c5be1e5ebec7d5bd14f71427d1e84f3dd0314c0f7b2291e5b200ac8c7c3b92560405160405180910390a45050565b600061113a82611002565b611179576040517f08c379a000000000000000000000000000000000000000000000000000000000815260040161117090612a4a565b60405180910390fd5b6000611184836107ea565b90508073ffffffffffffffffffffffffffffffffffffffff168473ffffffffffffffffffffffffffffffffffffffff1614806111f357508373ffffffffffffffffffffffffffffffffffffffff166111db846105a6565b73ffffffffffffffffffffffffffffffffffffffff16145b8061120457506112038185610e06565b5b91505092915050565b8273ffffffffffffffffffffffffffffffffffffffff1661122d826107ea565b73ffffffffffffffffffffffffffffffffffffffff1614611283576040517f08c379a000000000000000000000000000000000000000000000000000000000815260040161127a90612adc565b60405180910390fd5b600073ffffffffffffffffffffffffffffffffffffffff168273ffffffffffffffffffffffffffffffffffffffff1614156112f3576040517f08c379a00000000000000000000000000000000000000000000000000000000081526004016112ea90612b6e565b60405180910390fd5b6112fe838383611994565b6001600460008573ffffffffffffffffffffffffffffffffffffffff1673ffffffffffffffffffffffffffffffffffffffff168152602001908152602001600020600082825461134e9190612bbd565b925050819055506001600460008473ffffffffffffffffffffffffffffffffffffffff1673ffffffffffffffffffffffffffffffffffffffff16815260200190815260200160002060008282546113a59190612bf1565b92505081905550816003600083815260200190815260200160002060006101000a81548173ffffffffffffffffffffffffffffffffffffffff021916908373ffffffffffffffffffffffffffffffffffffffff160217905550808273ffffffffffffffffffffffffffffffffffffffff168473ffffffffffffffffffffffffffffffffffffffff167fddf252ad1be2c89b69c2b068fc378daa952ba7f163c4a11628f55a4df523b3ef60405160405180910390a4505050565b60008060009054906101000a900473ffffffffffffffffffffffffffffffffffffffff169050816000806101000a81548173ffffffffffffffffffffffffffffffffffffffff021916908373ffffffffffffffffffffffffffffffffffffffff1602179055508173ffffffffffffffffffffffffffffffffffffffff168173ffffffffffffffffffffffffffffffffffffffff167f8be0079c531659141344cd1fd0a4f28419497f9722a3daafe3b4186f6b6457e060405160405180910390a35050565b6001816000016000828254019250508190555050565b600081600001549050919050565b611560828260405180602001604052806000815250611999565b5050565b61156d82611002565b6115ac576040517f08c379a00000000000000000000000000000000000000000000000000000000081526004016115a390612cb9565b60405180910390fd5b806009600084815260200190815260200160002090805190602001906115d3929190611d5d565b505050565b8173ffffffffffffffffffffffffffffffffffffffff168373ffffffffffffffffffffffffffffffffffffffff161415611647576040517f08c379a000000000000000000000000000000000000000000000000000000000815260040161163e90612d25565b60405180910390fd5b80600660008573ffffffffffffffffffffffffffffffffffffffff1673ffffffffffffffffffffffffffffffffffffffff16815260200190815260200160002060008473ffffffffffffffffffffffffffffffffffffffff1673ffffffffffffffffffffffffffffffffffffffff16815260200190815260200160002060006101000a81548160ff0219169083151502179055508173ffffffffffffffffffffffffffffffffffffffff168373ffffffffffffffffffffffffffffffffffffffff167f17307eab39ab6107e8899845ad3d59bd9653f200f220920489ca2b5937696c31836040516117389190611eb4565b60405180910390a3505050565b61175084848461120d565b61175c848484846119f4565b61179b576040517f08c379a000000000000000000000000000000000000000000000000000000000815260040161179290612db7565b60405180910390fd5b50505050565b6060600a80546117b0906124dc565b80601f01602080910402602001604051908101604052809291908181526020018280546117dc906124dc565b80156118295780601f106117fe57610100808354040283529160200191611829565b820191906000526020600020905b81548152906001019060200180831161180c57829003601f168201915b5050505050905090565b6060600082141561187b576040518060400160405280600181526020017f3000000000000000000000000000000000000000000000000000000000000000815250905061198f565b600082905060005b600082146118ad57808061189690612dd7565b915050600a826118a69190612e4f565b9150611883565b60008167ffffffffffffffff8111156118c9576118c8612112565b5b6040519080825280601f01601f1916602001820160405280156118fb5781602001600182028036833780820191505090505b5090505b60008514611988576001826119149190612bbd565b9150600a856119239190612e80565b603061192f9190612bf1565b60f81b81838151811061194557611944612eb1565b5b60200101907effffffffffffffffffffffffffffffffffffffffffffffffffffffffffffff1916908160001a905350600a856119819190612e4f565b94506118ff565b8093505050505b919050565b505050565b6119a38383611b7c565b6119b060008484846119f4565b6119ef576040517f08c379a00000000000000000000000000000000000000000000000000000000081526004016119e690612db7565b60405180910390fd5b505050565b6000611a158473ffffffffffffffffffffffffffffffffffffffff16611d4a565b15611b6f578373ffffffffffffffffffffffffffffffffffffffff1663150b7a02611a3e61106e565b8786866040518563ffffffff1660e01b8152600401611a609493929190612f35565b6020604051808303816000875af1925050508015611a9c57506040513d601f19601f82011682018060405250810190611a999190612f96565b60015b611b1f573d8060008114611acc576040519150601f19603f3d011682016040523d82523d6000602084013e611ad1565b606091505b50600081511415611b17576040517f08c379a0000000000000000000000000000000000000000000000000000000008152600401611b0e90612db7565b60405180910390fd5b805181602001fd5b63150b7a0260e01b7bffffffffffffffffffffffffffffffffffffffffffffffffffffffff1916817bffffffffffffffffffffffffffffffffffffffffffffffffffffffff191614915050611b74565b600190505b949350505050565b600073ffffffffffffffffffffffffffffffffffffffff168273ffffffffffffffffffffffffffffffffffffffff161415611bec576040517f08c379a0000000000000000000000000000000000000000000000000000000008152600401611be39061300f565b60405180910390fd5b611bf581611002565b15611c35576040517f08c379a0000000000000000000000000000000000000000000000000000000008152600401611c2c9061307b565b60405180910390fd5b611c4160008383611994565b6001600460008473ffffffffffffffffffffffffffffffffffffffff1673ffffffffffffffffffffffffffffffffffffffff1681526020019081526020016000206000828254611c919190612bf1565b92505081905550816003600083815260200190815260200160002060006101000a81548173ffffffffffffffffffffffffffffffffffffffff021916908373ffffffffffffffffffffffffffffffffffffffff160217905550808273ffffffffffffffffffffffffffffffffffffffff16600073ffffffffffffffffffffffffffffffffffffffff167fddf252ad1be2c89b69c2b068fc378daa952ba7f163c4a11628f55a4df523b3ef60405160405180910390a45050565b600080823b905060008111915050919050565b828054611d69906124dc565b90600052602060002090601f016020900481019282611d8b5760008555611dd2565b82601f10611da457805160ff1916838001178555611dd2565b82800160010185558215611dd2579182015b82811115611dd1578251825591602001919060010190611db6565b5b509050611ddf9190611de3565b5090565b5b80821115611dfc576000816000905550600101611de4565b5090565b6000604051905090565b600080fd5b600080fd5b60007fffffffff0000000000000000000000000000000000000000000000000000000082169050919050565b611e4981611e14565b8114611e5457600080fd5b50565b600081359050611e6681611e40565b92915050565b600060208284031215611e8257611e81611e0a565b5b6000611e9084828501611e57565b91505092915050565b60008115159050919050565b611eae81611e99565b82525050565b6000602082019050611ec96000830184611ea5565b92915050565b600081519050919050565b600082825260208201905092915050565b60005b83811015611f09578082015181840152602081019050611eee565b83811115611f18576000848401525b50505050565b6000601f19601f8301169050919050565b6000611f3a82611ecf565b611f448185611eda565b9350611f54818560208601611eeb565b611f5d81611f1e565b840191505092915050565b60006020820190508181036000830152611f828184611f2f565b905092915050565b6000819050919050565b611f9d81611f8a565b8114611fa857600080fd5b50565b600081359050611fba81611f94565b92915050565b600060208284031215611fd657611fd5611e0a565b5b6000611fe484828501611fab565b91505092915050565b600073ffffffffffffffffffffffffffffffffffffffff82169050919050565b600061201882611fed565b9050919050565b6120288161200d565b82525050565b6000602082019050612043600083018461201f565b92915050565b6120528161200d565b811461205d57600080fd5b50565b60008135905061206f81612049565b92915050565b6000806040838503121561208c5761208b611e0a565b5b600061209a85828601612060565b92505060206120ab85828601611fab565b9150509250929050565b6000806000606084860312156120ce576120cd611e0a565b5b60006120dc86828701612060565b93505060206120ed86828701612060565b92505060406120fe86828701611fab565b9150509250925092565b600080fd5b600080fd5b7f4e487b7100000000000000000000000000000000000000000000000000000000600052604160045260246000fd5b61214a82611f1e565b810181811067ffffffffffffffff8211171561216957612168612112565b5b80604052505050565b600061217c611e00565b90506121888282612141565b919050565b600067ffffffffffffffff8211156121a8576121a7612112565b5b6121b182611f1e565b9050602081019050919050565b82818337600083830152505050565b60006121e06121db8461218d565b612172565b9050828152602081018484840111156121fc576121fb61210d565b5b6122078482856121be565b509392505050565b600082601f83011261222457612223612108565b5b81356122348482602086016121cd565b91505092915050565b60006020828403121561225357612252611e0a565b5b600082013567ffffffffffffffff81111561227157612270611e0f565b5b61227d8482850161220f565b91505092915050565b60006020828403121561229c5761229b611e0a565b5b60006122aa84828501612060565b91505092915050565b6122bc81611f8a565b82525050565b60006020820190506122d760008301846122b3565b92915050565b6122e681611e99565b81146122f157600080fd5b50565b600081359050612303816122dd565b92915050565b600080604083850312156123205761231f611e0a565b5b600061232e85828601612060565b925050602061233f858286016122f4565b9150509250929050565b600067ffffffffffffffff82111561236457612363612112565b5b61236d82611f1e565b9050602081019050919050565b600061238d61238884612349565b612172565b9050828152602081018484840111156123a9576123a861210d565b5b6123b48482856121be565b509392505050565b600082601f8301126123d1576123d0612108565b5b81356123e184826020860161237a565b91505092915050565b6000806000806080858703121561240457612403611e0a565b5b600061241287828801612060565b945050602061242387828801612060565b935050604061243487828801611fab565b925050606085013567ffffffffffffffff81111561245557612454611e0f565b5b612461878288016123bc565b91505092959194509250565b6000806040838503121561248457612483611e0a565b5b600061249285828601612060565b92505060206124a385828601612060565b9150509250929050565b7f4e487b7100000000000000000000000000000000000000000000000000000000600052602260045260246000fd5b600060028204905060018216806124f457607f821691505b60208210811415612508576125076124ad565b5b50919050565b7f4552433732313a20617070726f76656420717565727920666f72206e6f6e657860008201527f697374656e7420746f6b656e0000000000000000000000000000000000000000602082015250565b600061256a602c83611eda565b91506125758261250e565b604082019050919050565b600060208201905081810360008301526125998161255d565b9050919050565b7f4552433732313a20617070726f76652063616c6c6572206973206e6f74206f7760008201527f6e6572206e6f7220617070726f76656420666f7220616c6c0000000000000000602082015250565b60006125fc603883611eda565b9150612607826125a0565b604082019050919050565b6000602082019050818103600083015261262b816125ef565b9050919050565b7f4552433732313a207472616e736665722063616c6c6572206973206e6f74206f60008201527f776e6572206e6f7220617070726f766564000000000000000000000000000000602082015250565b600061268e603183611eda565b915061269982612632565b604082019050919050565b600060208201905081810360008301526126bd81612681565b9050919050565b7f4f776e61626c653a2063616c6c6572206973206e6f7420746865206f776e6572600082015250565b60006126fa602083611eda565b9150612705826126c4565b602082019050919050565b60006020820190508181036000830152612729816126ed565b9050919050565b7f4552433732313a206f776e657220717565727920666f72206e6f6e657869737460008201527f656e7420746f6b656e0000000000000000000000000000000000000000000000602082015250565b600061278c602983611eda565b915061279782612730565b604082019050919050565b600060208201905081810360008301526127bb8161277f565b9050919050565b7f4552433732313a2062616c616e636520717565727920666f7220746865207a6560008201527f726f206164647265737300000000000000000000000000000000000000000000602082015250565b600061281e602a83611eda565b9150612829826127c2565b604082019050919050565b6000602082019050818103600083015261284d81612811565b9050919050565b7f4552433732314d657461646174613a2055524920717565727920666f72206e6f60008201527f6e6578697374656e7420746f6b656e0000000000000000000000000000000000602082015250565b60006128b0602f83611eda565b91506128bb82612854565b604082019050919050565b600060208201905081810360008301526128df816128a3565b9050919050565b600081905092915050565b60006128fc82611ecf565b61290681856128e6565b9350612916818560208601611eeb565b80840191505092915050565b600061292e82856128f1565b915061293a82846128f1565b91508190509392505050565b7f4f776e61626c653a206e6577206f776e657220697320746865207a65726f206160008201527f6464726573730000000000000000000000000000000000000000000000000000602082015250565b60006129a2602683611eda565b91506129ad82612946565b604082019050919050565b600060208201905081810360008301526129d181612995565b9050919050565b7f4552433732313a206f70657261746f7220717565727920666f72206e6f6e657860008201527f697374656e7420746f6b656e0000000000000000000000000000000000000000602082015250565b6000612a34602c83611eda565b9150612a3f826129d8565b604082019050919050565b60006020820190508181036000830152612a6381612a27565b9050919050565b7f4552433732313a207472616e73666572206f6620746f6b656e2074686174206960008201527f73206e6f74206f776e0000000000000000000000000000000000000000000000602082015250565b6000612ac6602983611eda565b9150612ad182612a6a565b604082019050919050565b60006020820190508181036000830152612af581612ab9565b9050919050565b7f4552433732313a207472616e7366657220746f20746865207a65726f2061646460008201527f7265737300000000000000000000000000000000000000000000000000000000602082015250565b6000612b58602483611eda565b9150612b6382612afc565b604082019050919050565b60006020820190508181036000830152612b8781612b4b565b9050919050565b7f4e487b7100000000000000000000000000000000000000000000000000000000600052601160045260246000fd5b6000612bc882611f8a565b9150612bd383611f8a565b925082821015612be657612be5612b8e565b5b828203905092915050565b6000612bfc82611f8a565b9150612c0783611f8a565b9250827fffffffffffffffffffffffffffffffffffffffffffffffffffffffffffffffff03821115612c3c57612c3b612b8e565b5b828201905092915050565b7f4552433732314d657461646174613a2055524920736574206f66206e6f6e657860008201527f697374656e7420746f6b656e0000000000000000000000000000000000000000602082015250565b6000612ca3602c83611eda565b9150612cae82612c47565b604082019050919050565b60006020820190508181036000830152612cd281612c96565b9050919050565b7f4552433732313a20617070726f766520746f2063616c6c657200000000000000600082015250565b6000612d0f601983611eda565b9150612d1a82612cd9565b602082019050919050565b60006020820190508181036000830152612d3e81612d02565b9050919050565b7f4552433732313a207472616e7366657220746f206e6f6e20455243373231526560008201527f63656976657220696d706c656d656e7465720000000000000000000000000000602082015250565b6000612da1603283611eda565b9150612dac82612d45565b604082019050919050565b60006020820190508181036000830152612dd081612d94565b9050919050565b6000612de282611f8a565b91507fffffffffffffffffffffffffffffffffffffffffffffffffffffffffffffffff821415612e1557612e14612b8e565b5b600182019050919050565b7f4e487b7100000000000000000000000000000000000000000000000000000000600052601260045260246000fd5b6000612e5a82611f8a565b9150612e6583611f8a565b925082612e7557612e74612e20565b5b828204905092915050565b6000612e8b82611f8a565b9150612e9683611f8a565b925082612ea657612ea5612e20565b5b828206905092915050565b7f4e487b7100000000000000000000000000000000000000000000000000000000600052603260045260246000fd5b600081519050919050565b600082825260208201905092915050565b6000612f0782612ee0565b612f118185612eeb565b9350612f21818560208601611eeb565b612f2a81611f1e565b840191505092915050565b6000608082019050612f4a600083018761201f565b612f57602083018661201f565b612f6460408301856122b3565b8181036060830152612f768184612efc565b905095945050505050565b600081519050612f9081611e40565b92915050565b600060208284031215612fac57612fab611e0a565b5b6000612fba84828501612f81565b91505092915050565b7f4552433732313a206d696e7420746f20746865207a65726f2061646472657373600082015250565b6000612ff9602083611eda565b915061300482612fc3565b602082019050919050565b6000602082019050818103600083015261302881612fec565b9050919050565b7f4552433732313a20746f6b656e20616c7265616479206d696e74656400000000600082015250565b6000613065601c83611eda565b91506130708261302f565b602082019050919050565b6000602082019050818103600083015261309481613058565b905091905056fea264697066735822122059f320d863f150c1e6e2f6285f2fc7747fe307a6a618ea3c96212022e72fa14f64736f6c634300080a0033",
  "immutableReferences": {},
  "source": "// SPDX-License-Identifier: MIT\r\npragma solidity >=0.4.22 <0.9.0;\r\n\r\nimport \"@openzeppelin/contracts/token/ERC721/ERC721.sol\";\r\nimport \"@openzeppelin/contracts/utils/Counters.sol\";\r\nimport \"@openzeppelin/contracts/access/Ownable.sol\";\r\n\r\ncontract GranteStudio is Ownable, ERC721 {\r\n    using Counters for Counters.Counter;\r\n    Counters.Counter private _tokenIds;\r\n    using Strings for uint256;\r\n    \r\n    uint256 public lastTokenId;\r\n    mapping(uint256 => string) private _tokenURIs;\r\n\r\n    string private _baseURIextended;\r\n\r\n    constructor() ERC721(\"FairToken\", \"FT\") {}\r\n\r\n    function setBaseURI(string memory baseURI_) external onlyOwner {\r\n        _baseURIextended = baseURI_;\r\n    }\r\n\r\n    function _setTokenURI(uint256 tokenId, string memory _tokenURI)\r\n        internal\r\n        virtual\r\n    {\r\n        require(\r\n            _exists(tokenId),\r\n            \"ERC721Metadata: URI set of nonexistent token\"\r\n        );\r\n        _tokenURIs[tokenId] = _tokenURI;\r\n    }\r\n\r\n    function _baseURI() internal view virtual override returns (string memory) {\r\n        return _baseURIextended;\r\n    }\r\n\r\n    function tokenURI(uint256 tokenId)\r\n        public\r\n        view\r\n        virtual\r\n        override\r\n        returns (string memory)\r\n    {\r\n        require(\r\n            _exists(tokenId),\r\n            \"ERC721Metadata: URI query for nonexistent token\"\r\n        );\r\n\r\n        string memory _tokenURI = _tokenURIs[tokenId];\r\n        string memory base = _baseURI();\r\n\r\n        // If there is no base URI, return the token URI.\r\n        if (bytes(base).length == 0) {\r\n            return _tokenURI;\r\n        }\r\n        // If both are set, concatenate the baseURI and tokenURI (via abi.encodePacked).\r\n        if (bytes(_tokenURI).length > 0) {\r\n            return string(abi.encodePacked(base, _tokenURI));\r\n        }\r\n        // If there is a baseURI but no tokenURI, concatenate the tokenID to the baseURI.\r\n        return string(abi.encodePacked(base, tokenId.toString()));\r\n    }\r\n\r\n    function mintFairToken(string memory sentTokenURI) public returns (uint256) {\r\n        _tokenIds.increment();\r\n        uint256 newItemId = _tokenIds.current();\r\n        lastTokenId = _tokenIds.current();\r\n        _safeMint(msg.sender, newItemId);\r\n        _setTokenURI(newItemId, sentTokenURI);\r\n        approve(msg.sender,newItemId);\r\n        return newItemId;\r\n    }\r\n\r\n    function transferFairToken(address from, address to, uint256 tokenId) public onlyOwner returns (bool) {\r\n        transferFrom(from,to,tokenId);\r\n        return(true);\r\n    }\r\n\r\n    function transferFairTokenExternal(address from, address to, uint256 tokenId) public onlyOwner returns(bool){\r\n        transferFrom(from,to,tokenId);\r\n        _approve(address(0), tokenId);\r\n        return(true);\r\n    }\r\n}",
  "sourcePath": "C:\\Users\\abc\\Desktop\\PROJECTS\\DAPPS\\Projects\\GranteStudio\\server\\contracts\\GranteStudio.sol",
  "compiler": {
    "name": "solc",
    "version": "0.8.10+commit.fc410830.Emscripten.clang"
  },
  "schemaVersion": "3.4.3",
  "updatedAt": "2021-12-08T12:38:39.434Z",
  "networkType": "ethereum",
  "devdoc": {
    "kind": "dev",
    "methods": {
      "approve(address,uint256)": {
        "details": "See {IERC721-approve}."
      },
      "balanceOf(address)": {
        "details": "See {IERC721-balanceOf}."
      },
      "getApproved(uint256)": {
        "details": "See {IERC721-getApproved}."
      },
      "isApprovedForAll(address,address)": {
        "details": "See {IERC721-isApprovedForAll}."
      },
      "name()": {
        "details": "See {IERC721Metadata-name}."
      },
      "owner()": {
        "details": "Returns the address of the current owner."
      },
      "ownerOf(uint256)": {
        "details": "See {IERC721-ownerOf}."
      },
      "renounceOwnership()": {
        "details": "Leaves the contract without owner. It will not be possible to call `onlyOwner` functions anymore. Can only be called by the current owner. NOTE: Renouncing ownership will leave the contract without an owner, thereby removing any functionality that is only available to the owner."
      },
      "safeTransferFrom(address,address,uint256)": {
        "details": "See {IERC721-safeTransferFrom}."
      },
      "safeTransferFrom(address,address,uint256,bytes)": {
        "details": "See {IERC721-safeTransferFrom}."
      },
      "setApprovalForAll(address,bool)": {
        "details": "See {IERC721-setApprovalForAll}."
      },
      "supportsInterface(bytes4)": {
        "details": "See {IERC165-supportsInterface}."
      },
      "symbol()": {
        "details": "See {IERC721Metadata-symbol}."
      },
      "tokenURI(uint256)": {
        "details": "See {IERC721Metadata-tokenURI}."
      },
      "transferFrom(address,address,uint256)": {
        "details": "See {IERC721-transferFrom}."
      },
      "transferOwnership(address)": {
        "details": "Transfers ownership of the contract to a new account (`newOwner`). Can only be called by the current owner."
      }
    },
    "version": 1
  },
  "userdoc": {
    "kind": "user",
    "methods": {},
    "version": 1
  }
}